:200000000C942B010C9453010C9453010C9453010C9453010C9453010C9453010C94530168
:200020000C9453010C9453010C9453010C9464080C9453010C9453010C9453010C94530108
:200040000C94C2070C9453010C9432080C940C080C9453010C9453010C9453010C945301E5
:200060000C9453010C945301036EDB363D9A9999993DABAAAA2A3E000000803F072C7AA5BF
:20008000BA6CC590DA3B9365FC8BBC53F810FD3C5692834DBD879D3AB63DCBC9BF5BBE735C
:2000A000DA0FC93F05A84CCDB2D44EB93836A9020C50B9918688083CA6AAAA2ABE00000009
:2000C000803F4E414E494E495459494E46CDCCCC3D0AD7233C17B7D13877CC2B329595E6B1
:2000E000241FB14F0A000020410000C84200401C4620BCBE4CCA1B0E5AAEC59D7400407A35
:2001000010F35A00A0724E18090010A5D4E80000E87648170000E40B54020000CA9A3B00EF
:200120000000E1F505000080969800000040420F000000A08601000000102700000000E85F
:2001400003000000006400000000000A00000000000100000000002C76D888DC674F08236E
:20016000DFC1DFAE59E1B1B796E5E3E453C63AE651997696E8E6C28426EB898C9B62ED40DB
:200180007C6FFCEFBC9C9F40F2BAA56FA5F490055A2AF75C936B6CF9676DC11BFCE0E40DAD
:2001A00047FEF520E6B500D0ED902E0300943577050080841E080000204E0A000000C80C11
:2001C000333333330F986E12831141EF8D2114893BE65516CFFEE6DB18D1844B381BF77C85
:2001E0001D901DA4BBE424203284725E228100C9F124ECA1E53D2700000000240027002A5C
:200200000000000000250028002B00000000002300260029000404040404040404020202CE
:20022000020202030303030303010204081020408001020408102001020408102000000029
:200240000800020100000304070000000000000000002009CB1E11241FBECFEFD8E0DEBF4E
:20026000CDBF12E0A0E0B1E0EAE6F4E502C005900D92A03BB107D9F724E0A0EBB2E001C00B
:200280001D92A23BB207E1F711E0CAE2D1E004C02197FE010E94F127C932D107C9F70E9489
:2002A0001F0B0C94282A0C940000833081F028F4813099F08230A9F008958730A9F0883018
:2002C000C9F08430B1F4809180008F7D03C0809180008F7780938000089584B58F7784BD65
:2002E000089584B58F7DFBCF8091B0008F778093B00008958091B0008F7DF9CFCF93DF93C2
:20030000282F30E0F901E35CFD4F8491F901E75DFD4FD491F901EB5EFD4FC491CC23A1F089
:2003200081110E945501EC2FF0E0EE0FFF1FE55FFD4FA591B491EC91ED2381E090E009F4C7
:2003400080E0DF91CF91089580E090E0FACF1F93CF93DF93282F30E0F901E35CFD4F8491B0
:20036000F901E75DFD4FD491F901EB5EFD4FC491CC23A9F0162F81110E945501EC2FF0E068
:20038000EE0FFF1FEF5FFD4FA591B4918FB7F894EC91111108C0D095DE23DC938FBFDF9161
:2003A000CF911F910895DE2BF8CFCF93DF9390E0FC01E75DFD4F24918B5E9D4FFC01849153
:2003C0008823D1F090E0880F991FFC01E950FE4FA591B491FC01EF5FFD4FC591D491623010
:2003E00071F49FB7F8943C91822F809583238C93E8812E2B28839FBFDF91CF9108958FB7E0
:20040000F894EC912E2B2C938FBFF6CF3FB7F8948091B7029091B802A091B902B091BA0298
:2004200026B5A89B05C02F3F19F00196A11DB11D3FBFBA2FA92F982F8827BC01CD01620F0E
:20044000711D811D911D42E0660F771F881F991F4A95D1F708958F929F92AF92BF92CF92AD
:20046000DF92EF92FF926B017C010E9406024B015C01C114D104E104F104B9F00E940602E6
:20048000681979098A099B09683E73408105910580F321E0C21AD108E108F10888EE880E96
:2004A00083E0981EA11CB11CE4CFFF90EF90DF90CF90BF90AF909F908F900895FC012481EF
:2004C00035816217730720F480819181009729F41092B10281EB92E00895860F971F0895E0
:2004E000AF92BF92CF92DF92EF92FF920F931F93CF93DF936C017B018B01040F151FEB01B6
:200500005E01AE18BF08C017D10759F06991D601ED91FC910190F081E02DC6010995892BF3
:2005200079F7C501DF91CF911F910F91FF90EF90DF90CF90BF90AF900895CF93DF93FC018D
:2005400044815581608171818BEB92E00E947002EC0142E050E068E171E08BEB92E00E94CE
:2005600070028C0F9D1FDF91CF910895FC01538D448D252F30E0842F90E0821B930B54176A
:2005800010F0CF96089501970895FC01918D828D981761F0A28DAE0FBF2FB11D5D968C9142
:2005A000928D9F5F9F73928F90E008958FEF9FEF0895FC01918D828D981731F0828DE80F35
:2005C000F11D858D90E008958FEF9FEF0895FC01918D228D892F90E0805C9F4F821B910952
:2005E0008F73992708958BEB92E00E94E70221E0892B09F420E0822F089580E090E0892BA5
:2006000029F00E94F30281110C9400000895FC01A48DA80FB92FB11DA35ABF4F2C91848DE7
:2006200090E001968F739927848FA689B7892C93A089B1898C91837080648C93938D848D09
:20064000981306C00288F389E02D80818F7D80830895EF92FF920F931F93CF93DF93EC0142
:2006600081E0888F9B8D8C8D98131AC0E889F989808185FF15C09FB7F894EE89FF8960832B
:20068000E889F98980818370806480839FBF81E090E0DF91CF911F910F91FF90EF90089592
:2006A000F62E0B8D10E00F5F1F4F0F731127E02E8C8D8E110CC00FB607FCFACFE889F989E2
:2006C000808185FFF5CFCE010E940703F1CFEB8DEC0FFD2FF11DE35AFF4FF0829FB7F8940A
:2006E0000B8FEA89FB8980818062CFCFCF93DF93EC01888D8823B9F0AA89BB89E889F98954
:200700008C9185FD03C0808186FD0DC00FB607FCF7CF8C9185FFF2CF808185FFEDCFCE0126
:200720000E940703E9CFDF91CF9108958F929F92AF92BF92FF920F931F93CF93DF93FC014E
:20074000F0808BE08F1508F44AC0828108E512E0081B110987FD1395000F111F000F111F4B
:200760008181C8E8D0E0C81BD10987FDD395CC0FDD1FCC0FDD1F4E010D2E000CAA08BB08B5
:200780009801012E000C440B550B281939094A095B09DB010E94612424EB30E040E050E02A
:2007A0000E943724820E931EA41EB51E8C169D062CF0E801801691060CF4E4012297CC0F76
:2007C000DD1F2FB7F8948F2D90E0FC01EE0FFF1FE80FF91FE85AFC4FD283C1832FBFDF91D4
:2007E000CF911F910F91FF90BF90AF909F908F9008951F93CF93DF93EC01162F88818C30C4
:2008000008F04EC061E0812F0E94D5018881282F30E0F901EE0FFF1FE20FF31FE85AFC4F54
:200820001F736081607C612B608319821A822CE0622F0E94BD27829FB001112430E020E089
:20084000AB01420F531FFA01EE0FFF1FE40FF51FE85AFC4F908196FD16C02F5F3F4F2C308D
:20086000310571F781110FC01092800082E0809381001092850010928400B19A80916F0049
:20088000826080936F00E8818E2F90E0FC01EE0FFF1FE80FF91FE85AFC4F808180648083C2
:2008A0008881DF91CF911F910895CF93DF93EC0189810E947E0121E049855A8548175907B9
:2008C00009F020E02883822FDF91CF9108951F93CF93DF93EC0111E0288139818A819B8168
:2008E000281739079CF46A8561278E810E94A70161E08C810E94A70160E08C810E94A701EA
:200900008A819B8101979B838A83E6CF288139818A819B818217930794F46A858E810E9453
:20092000A70161E08C810E94A70160E08C810E94A7018A819B8101969B838A83E7CFDF91D1
:20094000CF911F91089521E06227FC0180850C94A701CF93C82F682F89E794E00E94A304F9
:200960006C2F88E894E00E94A3046C2F87E994E00E94A3046C2F8AE694E0CF910C94A304C1
:20098000CF92DF92EF92FF920F93CF93DF93EC01862F9AEAC92E97E2D92E9FE9E92E95E448
:2009A000F92ECB86DC86ED86FE866C837D835F834E83398728870A871B821A8261E00E94A8
:2009C000D50161E08E810E94D50161E088850E94D50160E0CE01DF91CF910F91FF90EF9026
:2009E000DF90CF900C94A3040F931F93CF93DF93EC0160E08B810E94A7018FE090E00197C0
:200A0000F1F701E010E08D859E8580179107BCF061E08D810E94A70160E08D810E94A701DC
:200A20008B859C858230910538F0880F991F880F991F05970197F1F70F5F1F4FE4CFDF915C
:200A4000CF911F910F9108950F931F93CF93DF93EC0160E08F810E94A7010FE010E0C801F2
:200A60000197F1F761E08B810E94A701C8010197F1F789810E947E0129853A8541E08217C4
:200A8000930709F040E0488382179307A1F061E08D810E94A70160E08D810E94A7018B85D3
:200AA0009C858230910538F0880F991F880F991F05970197F1F789810E947E0121E04985F1
:200AC0005A854817590709F020E02883DF91CF911F910F9108950F931F93CF93DF93EC0102
:200AE00088819981009759F02A813B812617370730F081E0DF91CF911F910F9108958B0147
:200B00006F5F7F4F0E941C29009759F0998388831B830A832C813D81232B59F7FC01108288
:200B2000E8CF80E0E7CFEF92FF920F931F93CF93DF936115710541F480E0DF91CF911F91AD
:200B40000F91FF90EF90089541155105B1F07B01EC010C811D81040F151FB8010E946B0557
:200B6000882351F3288139818C819D81B701820F931F0E94072A1D830C8381E0DECFFB01F1
:200B800001900020E9F73197AF01461B570B0C949305CF93DF93EC0188819981009711F0D5
:200BA0000E949328198218821D821C821B821A82DF91CF910895CF93DF93EC01FB01019072
:200BC0000020E9F73197AF01461B570B0E949305811103C0CE010E94C905CE01DF91CF916D
:200BE0000895CF93DF93EC01FB0144815581608171810E949305811103C0CE010E94C9055F
:200C0000CE01DF91CF910895EF92FF920F931F93CF93DF93EC017B018A01BA010E946B059D
:200C200081110BC0CE010E94C905CE01DF91CF911F910F91FF90EF9008951D830C83B70197
:200C4000888199810E94072AF0CFFB0101900020E9F73197AF01461B570B0C940406EF92EC
:200C6000FF920F931F93CF93DF93CDB7DEB7A1970FB6F894DEBF0FBECDBF7C01CB01BA011F
:200C8000F7011182108213821282158214828E010F5F1F4F22E044E00E94D51E009789F0AB
:200CA000BC01C7010E942506A1960FB6F894DEBF0FBECDBFDF91CF911F910F91FF90EF9036
:200CC0000895C7010E94C905EFCF0F931F93CF93DF93CDB7DEB762970FB6F894DEBF0FBE8C
:200CE000CDBF8C01CB01F8011182108213821282158214824AE0BE016F5F7F4F0E941E1F37
:200D0000BE016F5F7F4FC8010E94250662960FB6F894DEBF0FBECDBFDF91CF911F910F9183
:200D20000895CF93DF93EC01FB018617970749F0608171816115710541F0448155810E94B8
:200D40000406CE01DF91CF9108950E94C905F9CFFC011182108213821282158214820C94FD
:200D60009106FC01118210821382128215821482FB0101900020E9F73197AF01461B570B9C
:200D80000C940406AF92BF92CF92DF92EF92FF920F931F93CF93DF936C015B017A0189013D
:200DA0002417350720F48F2D7901042F182F6AE171E0C6010E94B106D5011496CD91DC91F1
:200DC000EC16FD06E0F40C171D0708F4E801D501ED91FC911197EC0FFD1F108110826D914D
:200DE0007C916E0D7F1DC60161157105A1F00E942506F50180819181C80FD91F1883C60184
:200E0000DF91CF911F910F91FF90EF90DF90CF90BF90AF9008950E94C905EBCFFC01808183
:200E20009181009711F00C9493280895CF93DF93CDB7DEB762970FB6F894DEBF0FBECDBFE3
:200E4000BC01CE010D960E94A8066AE171E0CE0107960E94B1066BE171E0CE0107960E9407
:200E60002506BE01695F7F4FCE0101960E94A806BE01635F7F4FCE0101960E94F105BC0132
:200E8000CE0107960E949106CE0101960E940E07CE0107960E949D02CE0107960E940E07C0
:200EA000CE010D960E940E0762960FB6F894DEBF0FBECDBFDF91CF910895CF93DF9300D0B9
:200EC00000D000D0CDB7DEB763E271E0CE0101960E94B106CE0101960E941607CE01019679
:200EE0000E940E0726960FB6F894DEBF0FBECDBFDF91CF910895CF93DF93CDB7DEB76297E5
:200F00000FB6F894DEBF0FBECDBFBC01CE010D960E94A8066AE171E0CE0107960E94B106AA
:200F20006AE371E0CE0107960E942506BE01695F7F4FCE0101960E94A806BE01635F7F4F80
:200F4000CE0101960E94F105BC01CE0107960E949106CE0101960E940E07CE0107960E9406
:200F60009D02CE0107960E940E07CE010D960E940E0762960FB6F894DEBF0FBECDBFDF91D7
:200F8000CF9108951F920F920FB60F9211242F933F938F939F93AF93BF938091B302909104
:200FA000B402A091B502B091B6023091B20223E0230F2D3758F50196A11DB11D2093B202B5
:200FC0008093B3029093B402A093B502B093B6028091B7029091B802A091B902B091BA02FD
:200FE0000196A11DB11D8093B7029093B802A093B902B093BA02BF91AF919F918F913F9188
:201000002F910F900FBE0F901F90189526E8230F0296A11DB11DD2CF1F920F920FB60F92EC
:2010200011242F933F934F935F936F937F938F939F93AF93BF93EF93FF938BEB92E00E9479
:201040000703FF91EF91BF91AF919F918F917F916F915F914F913F912F910F900FBE0F901B
:201060001F9018951F920F920FB60F9211242F938F939F93EF93FF93E091CB02F091CC0270
:201080008081E091D102F091D20282FD1BC090818091D4028F5F8F732091D502821741F022
:2010A000E091D402F0E0E554FD4F958F8093D402FF91EF919F918F912F910F900FBE0F905C
:2010C0001F9018958081F4CF1F920F920FB60F9211242F933F934F935F936F937F938F9365
:2010E0009F93AF93BF93CF93DF93EF93FF938091B002C0917C03D0E087FF24C0109285006E
:20110000109284008091B0028F5F8093B0028091B002082E000C990B8C179D0724F480911A
:20112000B0028C30C4F18091840090918500049680349C4908F47AC08091840090918500AD
:20114000049676C08091B002082E000C990B8C179D07C4F6E091B0028E2FEE0F990BFC0197
:20116000EE0FFF1FE80FF91FE85AFC4F808186FFC9CFE091B0028E2FEE0F990BFC01EE0F1F
:20118000FF1FE80FF91FE85AFC4F808160E08F730E94A701B7CF2091840030918500E09196
:2011A000B0028E2FEE0F990BFC01EE0FFF1FE80FF91FE85AFC4F81819281820F931F9093F0
:2011C000890080938800E091B0028E2FEE0F990BFC01EE0FFF1FE80FF91FE85AFC4F8081B5
:2011E00086FF11C0E091B0028E2FEE0F990BFC01EE0FFF1FE80FF91FE85AFC4F808161E022
:201200008F730E94A701FF91EF91DF91CF91BF91AF919F918F917F916F915F914F913F9112
:201220002F910F900FBE0F901F90189580E49CE990938900809388008FEF8093B002E3CF62
:201240000F931F93CF93DF931092BE021092BD0288EE93E0A0E0B0E08093BF029093C002F1
:20126000A093C102B093C2028AE091E09093BC028093BB0285EC90E09093C8028093C7023B
:2012800084EC90E09093CA028093C90280EC90E09093CC028093CB0281EC90E09093CE0224
:2012A0008093CD0282EC90E09093D0028093CF0286EC90E09093D2028093D1021092D4025E
:2012C0001092D5021092D6021092D70280917C038C3008F0ACC191E0980F90937C03809322
:2012E000A90490E0FC01EE0FFF1FE80FF91FE85AFC4F88EB9BE09283818380917C038C30CA
:2013000008F099C191E0980F90937C038093A60490E0FC01EE0FFF1FE80FF91FE85AFC4FE0
:2013200088EB9BE09283818301E028E030E046E050E063E070E087E994E00E94C00400E09A
:2013400028E030E045E050E062E070E088E894E00E94C00428E030E047E050E064E070E041
:2013600089E794E00E94C00401E02FEF3FEF4FEF5FEF6FEF7FEF8AE694E00E94C0048AE0EA
:2013800090E090935D0480935C0486E090E090935F0480935E0483E090E0909361048093A7
:2013A0006004C8E0D0E0D0936304C0936204109265041092640404E011E010936704009363
:2013C00066048CE592E1909369048093680462E08AE00E94D5018BE090E090934E04809329
:2013E0004D0485E090E09093500480934F0482E090E09093520480935104D0935404C09329
:2014000053041092560410925504109358040093570480E991E090935A048093590462E084
:201420008BE00E94D50189E090E090933F0480933E0487E090E0909341048093400484E03B
:2014400090E09093430480934204D0934504C09344041092470410924604109349040093B6
:20146000480484EF9FE190934B0480934A0462E089E00E94D501CFEFDFEFD0933004C093C1
:201480002F04D0933204C0933104D0933404C0933304D0933604C09335041092380410922A
:2014A000370410933A040093390410923C0410923B0462E08FEF0E94D50181E190E0909350
:2014C0002D0480932C0461E00E94D5010FE010E010932B0400932A0461E08FE00E94D50145
:2014E000D0932904C093280461E08FEF0E94D5018CE59FE8ADECB2E4809304049093050438
:20150000A0930604B093070480E090E0A7E0B3E48093080490930904A0930A04B0930B0470
:2015200080E090E0A5E2B3E480930C0490930D04A0930E04B0930F041092A7031092A80332
:201540001092A9031092AA031092AB031092AC031092AD031092AE031092AF031092B003FF
:201560001092B1031092B2031092B3031092B4031092B5031092B60385E991E00E94F727B9
:201580009093A00380939F031093A2030093A1031092A4031092A3031092A6031092A5032B
:2015A0006AE171E089E993E00E94B10680E090E0A0ECBFE78093810390938203A093830357
:2015C000B09384038093850390938603A0938703B09388038093890390938A03A0938B035F
:2015E000B0938C0310928D0310928E0310928F03109290038093910390939203A093930323
:20160000B0939403109295031092960310929703109298036AE171E089E993E00E942506B4
:2016200010927D03DF91CF911F910F9108958FEF8093A90462CE8FEF8093A60475CECF937D
:20164000DF93CDB7DEB7C15DD1090FB6F894DEBF0FBECDBF789484B5826084BD84B581603E
:2016600084BD85B5826085BD85B5816085BD80916E00816080936E001092810080918100D8
:2016800082608093810080918100816080938100809180008160809380008091B100846022
:2016A0008093B1008091B00081608093B00080917A00846080937A0080917A008260809385
:2016C0007A0080917A00816080937A0080917A00806880937A001092C100E091CB02F09175
:2016E000CC0282E08083E091C702F091C8021082E091C902F091CA0280E180831092D3023C
:20170000E091CF02F091D00286E08083E091CD02F091CE02808180618083E091CD02F09194
:20172000CE02808188608083E091CD02F091CE02808180688083E091CD02F091CE028081DE
:201740008F7D80832BED3FE049EC5FE36091A2047091A3048091A4049091A5040E947623CF
:201760000E94E12570939A0460939904709398046093970420E030E0A90160919304709120
:20178000940480919504909196040E9476230E94E12570938B0460938A04709389046093D3
:2017A000880420E030E0A901609184047091850480918604909187040E9476230E94E125B6
:2017C00070937C0460937B0470937A046093790410926D0410926C0410926B0410926A04DD
:2017E00080E00E94A90461E471E0CE0101960E94B106CE0101960E947B07CE0101960E9453
:201800000E0780E090E0A0EAB0E48093FC039093FD03A093FE03B093FF0320E030E0A9015D
:20182000BC01CD010E946F25C453DF4F688379838A839B83CC5CD040609300047093010459
:2018400080930204909303041092CC031092CD031092CE031092CF0387ED93EEA5E8B3E462
:201860008093D0039093D103A093D203B093D30380E090E0A7E0B3E48093D4039093D50397
:20188000A093D603B093D7031092D8031092D9031092DA031092DB031092DC031092DD0322
:2018A0001092DE031092DF031092E0031092E1031092E2031092E3031092E4031092E503F4
:2018C0001092E6031092E7031092E8031092E9031092EA031092EB031092C7030E940602A1
:2018E0006093C8037093C9038093CA039093CB036CE070E089EA94E00E94F9036DE070E0CC
:2019000086EA94E00E94F90370E060E089EA94E00E94960370E060E086EA94E00E949603E4
:2019200061E08CE00E94D50160E08CE00E94A7018091C7038111C4C10E9406020091C80394
:201940001091C9032091CA033091CB03601B710B820B930B0E94172320E034E244E759E491
:201960000E946F25209100043091010440910204509103040E9476234B015C012BED3FE0DC
:2019800049E450E40E9476230E946A256B017C0120E030E040E85FE3C501B4010E94B12623
:2019A00087FFDDC3C701B601905820E030E040E05FE30E94762320E030E040E05FE30E94D9
:2019C000E3246B017C012091DC033091DD034091DE035091DF03C701B6010E947623209106
:2019E000CC033091CD034091CE035091CF030E94E324C057DF4F688379838A839B83C05919
:201A0000D0406093B7037093B8038093B9039093BA032091E0033091E1034091E2035091CC
:201A2000E303C701B6010E9476232091D0033091D1034091D2035091D3030E94E324C856C9
:201A4000DF4F688379838A839B83C859D0406093BB037093BC038093BD039093BE0320913A
:201A6000E4033091E5034091E6035091E703C701B6010E9476232091D4033091D5034091A5
:201A8000D6035091D7030E94E3244B015C018092BF039092C003A092C103B092C2032091F9
:201AA000E8033091E9034091EA035091EB03C701B6010E9476232091D8033091D90340914D
:201AC000DA035091DB030E94E3242B013C014092C3035092C4036092C5037092C603C85674
:201AE000DF4F288139814A815B81C859D040C057DF4F688179818A819B81C059D0400E9463
:201B0000C4266B017C012CE53FE84DEC52E40E94E224CC56DF4F688379838A839B83C45924
:201B2000D040A7019601C856DF4F688179818A819B81C859D0400E946F25CC56DF4F2881A0
:201B400039814A815B81C459D0400E947623C456DF4F688379838A839B83CC59D040A70185
:201B60009601C057DF4F688179818A819B81C059D0400E946F25CC56DF4F288139814A81A2
:201B80005B81C459D0400E9476236B017C01C456DF4F288139814A815B81CC59D040CA01C6
:201BA000B9010E947623CC56DF4F688379838A839B83C459D040A7019601C701B6010E9441
:201BC00076239B01AC01CC56DF4F688179818A819B81C459D0400E94E3246B017C01A50164
:201BE0009401C501B4010E9476239B01AC01C701B6010E94E3246B017C0124EE32E34CE9E4
:201C000057E40E94102318160CF4B3C220EF3DE34FE156E4C701B6010E94B12687FDA9C291
:201C200020E030E04CE053ECC501B4010E94B12687FD9FC220E030E049E353E4C501B40162
:201C40000E94102318160CF494C220E030E048E453E4C301B2010E94102318160CF489C2F3
:201C6000C057DF4F288139814A815B81C059D0402093EC033093ED034093EE035093EF03FE
:201C8000C856DF4F88819981AA81BB81C859D0408093F0039093F103A093F203B093F303BF
:201CA0008092F4039092F503A092F603B092F7034092F8035092F9036092FA037092FB0300
:201CC0002091F4033091F5034091F6035091F703C856DF4F288339834A835B83C859D0406F
:201CE0002091F0033091F1034091F2035091F3038090EC039090ED03A090EE03B090EF038C
:201D00008092100490921104A0921204B09213042093140430931504409316045093170433
:201D2000C856DF4F88819981AA81BB81C859D0408093180490931904A0931A04B0931B047A
:201D4000C501B4010E94C4262B013C01209104043091050440910604509107040E94E22421
:201D6000C456DF4F688379838A839B83CC59D040C856DF4F288139814A815B81C859D0404D
:201D80000E94C426C057DF4F688379838A839B83C059D0409B01AC010E947623C056DF4F6F
:201DA000688379838A839B83C05AD040C0900804D0900904E0900A04F0900B04A7019601D2
:201DC000C701B6010E947623CC55DF4F688379838A839B83C45AD04020910C0430910D0427
:201DE00040910E0450910F04CC56DF4F288339834A835B83C459D040CA01B9010E947623BD
:201E0000C855DF4F688379838A839B83C85AD040A3019201C501B4010E946F250E944F2535
:201E20002B013C0140921C0450921D0460921E0470921F04A7019601C701B6010E94E324A4
:201E40004B015C01C855DF4F288139814A815B81C85AD040CC55DF4F688179818A819B81F9
:201E6000C45AD0400E94E324C056DF4F288139814A815B81C05AD0400E94E2246B017C0182
:201E8000A5019401CC56DF4F688179818A819B81C459D0400E9476239B01AC01C701B6017D
:201EA0000E946F250E94D1249B01AC016BED7FE089E490E40E94E2246B017C01C855DF4F98
:201EC000288139814A815B81C85AD040CC55DF4F688179818A819B81C45AD0400E94E22497
:201EE000C056DF4F288139814A815B81C05AD0400E94E324CC56DF4F688379838A839B835F
:201F0000C459D040A5019401C057DF4F688179818A819B81C059D0400E9476239B01AC015D
:201F2000CC56DF4F688179818A819B81C459D0400E946F250E94D1244B015C0120E030E094
:201F4000A901C856DF4F688179818A819B81C859D0400E94B126C057DF4F288139814A8164
:201F60005B81C059D04018160CF00CC2C856DF4F688179818A819B81C859D0400E946F25A7
:201F80000E94D124A50194010E94E2246093200470932104809322049093230480902004D1
:201FA00090902104A0902204B0902304A5019401C701B6010E94E3246B017C01C092240459
:201FC000D0922504E0922604F092270420918404309185044091860450918704C301B2016C
:201FE0000E9476230E94E12570937A04609379042091930430919404409195045091960487
:20200000C501B4010E9476230E94E12570938904609388042091A2043091A3044091A4041B
:202020005091A504C701B6010E9476230E94E125709398046093970420E030E040EA52E417
:202040006091F8037091F9038091FA039091FB030E9476230E94E12570936B0460936A04B4
:2020600089E794E00E94670488E894E00E94670487E994E00E9467048AE694E00E9467049C
:202080002091A5033091A6038091A1039091A203281739070CF04BC28BEB92E00E94E70207
:2020A000892B09F444C28BEB92E00E94C5028A3009F43DC28D3009F000C469E973E0CE0174
:2020C00088589F4F0E94A80680E090E0A0ECBFE78093810390938203A0938303B09384031E
:2020E0008093850390938603A0938703B09388038093890390938A03A0938B03B0938C032C
:202100008093910390939203A0939303B093940310928D0310928E0310928F0310929003EF
:2021200010929503109296031092970310929803EA960EAD1FADEA970115110509F437C108
:20214000D8018D918D01882309F431C1082E000C990B0E94E429F80131978083F1CF81E0E6
:202160008093C703C12CD12C40E8E42E4FE3F42E2ACCB301A201CE018C579F4F0E942F0646
:202180004091BF035091C0036091C1037091C203CE0182589F4F0E942F064091BB035091AF
:2021A000BC036091BD037091BE03CE0188589F4F0E942F064091B7035091B8036091B903A5
:2021C0007091BA03CE018E589F4F0E942F066BE771E0CE018E599F4F0E94B106BE016E58A2
:2021E0007F4FCE018E599F4F0E94F1056EE871E00E94DB05BE0168587F4F0E94F10562E97C
:2022000071E00E94DB05BE0162587F4F0E94F10566E971E00E94DB05BE016C577F4F0E94F8
:20222000F1056AE971E00E94DB05BC01CE0186579F4F0E94A806CE0186579F4F0E94160782
:20224000CE0186579F4F0E940E07CE018E599F4F0E940E07CE018E589F4F0E940E07CE01A9
:2022600088589F4F0E940E07CE0182589F4F0E940E07CE018C579F4F0E940E07C090EC03F5
:20228000D090ED03E090EE03F090EF03C092B703D092B803E092B903F092BA030091F00301
:2022A0001091F1032091F2033091F3030093BB031093BC032093BD033093BE034091F403BA
:2022C0005091F5036091F6037091F7034093BF035093C0036093C1037093C2038091F8037A
:2022E0009091F903A091FA03B091FB038093C3039093C403A093C503B093C603E1E0E09356
:20230000C703C092CC03D092CD03E092CE03F092CF030093D0031093D1032093D2033093E1
:20232000D3034093D4035093D5036093D6037093D7038093D8039093D903A093DA03B09379
:20234000DB031092DC031092DD031092DE031092DF031092E0031092E1031092E203109261
:20236000E3031092E4031092E5031092E6031092E7031092E8031092E9031092EA03109201
:20238000EB039ECCC456DF4F688179818A819B81CC59D0400E946F250E944F259B01AC01C9
:2023A0006BED7FE089E490E40E94E224EBCD6AE171E0CE018E589F4F0E94B1066FE371E0EA
:2023C000CE018E599F4F0E94B106EE96AEACBFACEE97A114B10409F47FC0A8968EAC9FACC9
:2023E000A8978114910409F477C0E896EEACFFACE897E818F908EA960EAD1FADEA97E11480
:20240000F104E1F4A4966EAD7FADA497C8010E940E2A8C01009709F45FC0E4966EAD7FAD92
:20242000E497E8964EAD5FADE8970E94EC29E8968EAD9FADE897080F191FE4CFF7FC11C01C
:20244000A4966EAC7FACA4976501C801B3010E940E2A009709F4AEC0880D991DCE0CDF1CE3
:20246000F5CF6801A4966EAD7FADA497C8010E940E2A4C01009761F15C01A01AB10AA50122
:20248000B801C6010E94EC29CA0CDB1CE4966EAD7FADE497E8964EAD5FADE897C6010E948F
:2024A000EC29E8968EAD9FADE897C80ED91EA8960EAD1FADA897080D191DEE968EAD9FAD5C
:2024C000EE978E0D9F1DEE969FAF8EAFEE97CACFB801C6010E94072ACE018E599F4F0E945A
:2024E0000E07CE018E589F4F0E940E0770E060E0CE0188589F4F0E945E02DC018C91809331
:202500007E03873409F4E8C08D3409F4E5C00E945D0710E0CE0188589F4F0E940E076AE1E2
:2025200071E089E993E00E9425061111D6C18091A5039091A603181619060CF050C2209150
:20254000C703222309F44BC201979093A6038093A503E091A303F091A4032091A1033091EE
:20256000A203CF010196B9010E94C9279093A4038093A303CF01B9010E94C927AC019BE13B
:20258000949F9001959F300D1124E0919F03F091A003E20FF31FDE01D79601900D929A95EC
:2025A000E1F72FA988AD99AD2F3F09F0D3C10E945D0715C2AC14BD0409F48ECFEC968EAD80
:2025C0009FADEC978C159D0588F4B6016F5F7F4FC8010E941C29009709F47ECFEA969FAFBB
:2025E0008EAFEA97EC96DFAECEAEEC97EE960EAD1FADEE970150110917FD6ECF4801A8963C
:202600006EAC7FACA8976114710409F465CFEE96AEACBFACEE97A114B10409F45DCFA61400
:20262000B70408F459CF0A151B0520F04501B1E08B1A9108EA96CEACDFACEA97A4962EAC3D
:202640003FACA497C6010FEF1FEF2601480C591C4816590678F0B1010E940E2A009751F008
:202660009C012C193D098216930608F4980101968901EECF17FD30CF600E711EC601860D24
:20268000971DA50146195709BC018E0D9F1D0E94F529EE968EAD9FADEE978E0D9F1DEE96E2
:2026A0009FAF8EAFEE97EA962EAD3FADEA97820F931FFC011082EA968EAD9FADEA97E4966E
:2026C0006EAD7FADE497E8964EAD5FADE897800F911F0E94EC298ECFEE24E394F12C8701B3
:2026E0000F5F1F4FEE968EAD9FADEE97E816F90680F4B701CE0188589F4F0E945E02FC01A9
:202700008081082E000C990B0E94DC29892B09F484C0970141E050E0BE0168587F4FCE0131
:202720008E599F4F0E94C206A4968EAD9FADA497009709F474C00E94F71E70938003609366
:202740007F03CE018E599F4F0E940E07EE968EAD9FADEE970817190708F0ADC0B801CE01E0
:2027600088589F4F0E945E02DC018C91082E000C990B0E94DC29892B09F055C00F5F1F4F64
:20278000EE968EAD9FADEE978017910739F79801A701BE0168587F4FCE018E589F4F0E9477
:2027A000C206E8962EAD3FADE89741E050E0BE016E587F4FCE018E599F4F0E94C206A496A1
:2027C0008EAD9FADA497C12CD12C7601009721F00E94F31E6B017C01CE018E599F4F0E944C
:2027E0000E0770E060E0CE018E589F4F0E945E02DC018C91833509F455C00CF5853409F414
:202800003FC0863409F445C0CE018E589F4F0E940E0778010F5F1F4F99CF780160CF60E0FE
:2028200070E0CB018ACFB801CE0188589F4F0E945E02FC0180818E3209F4A0CFA8CF89356C
:2028400069F08A35A1F08835F9F6C0928103D0928203E0928303F0928403D6CFC0928503E6
:20286000D0928603E0928703F0928803CDCFC0928903D0928A03E0928B03F0928C03C4CF57
:20288000C0929103D0929203E0929303F0929403BBCFC0928D03D0928E03E0928F03F09255
:2028A0009003B2CFC0929503D0929603E0929703F0929803A9CF11E02DCEA3968FAFA397E1
:2028C000A4961FAEA49741E050E0BE016E597F4F89E993E00E9493052ACE8BE1EEE7F3E0E6
:2028E000DE015C9601900D928A95E1F78BE1FE017C96DE01119601900D928A95E1F7209105
:202900009F033091A0038091A3039091A4034091A5035091A603BA016F5F7F4F7093A6032C
:202920006093A503840F951F6091A1037091A2030E94C927AC019BE1949FD001959FB00DCA
:202940001124A20FB31FFE01319601900D929A95E1F7EDCD273411F00C94EE1C8AAC9BAC85
:20296000ACACBDAC2296CCACDDACEEACFFAC229726964CAC5DAC6EAC7FAC26972E962CAD83
:202980003DAD4EAD5FAD2E97C057DF4F288339834A835B83C059D0408A35910509F488C562
:2029A0000CF04AC097FD03CE823091050CF46DC0049709F0FCCD20E030E04AE754E4629669
:2029C0006CAD7DAD8EAD9FAD62970E9476230E94E125072E000C880B990B0E942B022FB724
:2029E000F8946091B3027091B4028091B5029091B6022FBF24EF31E040E050E00E94A02485
:202A00006A3F71058105910510F00C94C81E61E0809128040E94A70180E090E0892B11F4A4
:202A20000C94980C0E94F302882311F40C94980C0E9400000C94980C8C35910509F443C585
:202A40000CF43BC588389A4009F0B1CD81E00E94A90410E000E0011137C48CE494E00E9452
:202A6000550481112DC48CE494E00E9424051111F1CF8BE594E00E945504182F8BE594E0DF
:202A8000111126C40E942405E6CF2A968CAD9DADAEADBFAD2A97C054DF4F88839983AA8349
:202AA000BB83C05CD04080E1E7EAF3E0DE01AE59BF4F01900D928A95E1F72091A703309170
:202AC000A8034091A9035091AA03CC53DF4F288339834A835B83C45CD0408091AB039091D1
:202AE000AC03A091AD03B091AE03C853DF4F88839983AA83BB83C85CD0402091AF03309121
:202B0000B0034091B1035091B203C455DF4F288339834A835B83CC5AD0408091EC03909137
:202B2000ED03A091EE03B091EF03C856DF4F88839983AA83BB83C859D0402091F0033091DC
:202B4000F1034091F2035091F303CC56DF4F288339834A835B83C459D0408091F40390912C
:202B6000F503A091F603B091F703C456DF4F88839983AA83BB83CC59D0402091F80330917C
:202B8000F9034091FA035091FB03C056DF4F288339834A835B83C05AD040E2968CAD9DAD11
:202BA000AEADBFADE297CC55DF4F88839983AA83BB83C45AD04080917D03A501940188234F
:202BC00009F4FAC2C501B4010E94A327811114C0A5019401C856DF4F688179818A819B815E
:202BE000C859D0400E94E324C856DF4F688379838A839B83C859D040A7019601C701B601AE
:202C00000E94A327811114C0A7019601CC56DF4F688179818A819B81C459D0400E94E32473
:202C2000CC56DF4F688379838A839B83C459D040A3019201C301B2010E94A327811114C085
:202C4000A3019201C456DF4F688179818A819B81CC59D0400E94E324C456DF4F68837983DE
:202C60008A839B83CC59D040C057DF4F288139814A815B81C059D040CA01B9010E94A3278B
:202C800081111AC0C057DF4F288139814A815B81C059D040C056DF4F688179818A819B8102
:202CA000C05AD0400E94E324C056DF4F688379838A839B83C05AD0402091DC033091DD0390
:202CC0004091DE035091DF036091CC037091CD038091CE039091CF030E94E324C055DF4F2D
:202CE000688379838A839B83C05BD0402091E0033091E1034091E2035091E3036091D0031D
:202D00007091D1038091D2039091D3030E94E324CC54DF4F688379838A839B83C45BD040C9
:202D20002091E4033091E5034091E6035091E7036091D4037091D5038091D6039091D70347
:202D40000E94E324C854DF4F688379838A839B83C85BD0402091E8033091E9034091EA0334
:202D60005091EB036091D8037091D9038091DA039091DB030E94E324C454DF4F6883798318
:202D80008A839B83CC5BD040C055DF4F288139814A815B81C05BD040C856DF4F688179812A
:202DA0008A819B81C859D0400E94E224C057DF4F688379838A839B83C059D040CC54DF4F45
:202DC000288139814A815B81C45BD040CC56DF4F688179818A819B81C459D0400E94E2248B
:202DE000CC55DF4F688379838A839B83C45AD040C854DF4F288139814A815B81C85BD040BD
:202E0000C456DF4F688179818A819B81CC59D0400E94E224C855DF4F688379838A839B8326
:202E2000C85AD040C454DF4F288139814A815B81CC5BD040C056DF4F688179818A819B818B
:202E4000C05AD0400E94E2242B013C0120E030E0A9010E94B12673016201181624F0F7FAFA
:202E6000F094F7F8F094C057DF4F288139814A815B81C059D040CA01B9010E9476234B01D7
:202E80005C01CC55DF4F288139814A815B81C45AD040CA01B9010E9476239B01AC01C5017F
:202EA000B4010E94E3244B015C01C855DF4F288139814A815B81C85AD040CA01B9010E945D
:202EC00076239B01AC01C501B4010E94E3240E9463275B018C01A70196010E94102387FD3F
:202EE00002C06501780120E030E040EA50E4C054DF4F688179818A819B81C05CD0400E94A9
:202F0000102387FDCAC1C054DF4F288139814A815B81C05CD0402093FC033093FD034093AF
:202F2000FE035093FF0320E030E040EA50E46091FC037091FD038091FE039091FF030E9475
:202F4000102387FF0CC080E090E0A0EAB0E48093FC039093FD03A093FE03B093FF03A701A8
:202F600096016091FC037091FD038091FE039091FF030E946F25609300047093010480934C
:202F8000020490930304C055DF4F88819981AA81BB81C05BD0408093CC039093CD03A09301
:202FA000CE03B093CF03CC54DF4F288139814A815B81C45BD0402093D0033093D1034093B4
:202FC000D2035093D303C854DF4F88819981AA81BB81C85BD0408093D4039093D503A09344
:202FE000D603B093D703C454DF4F288139814A815B81CC5BD0402093D8033093D903409354
:20300000DA035093DB03C057DF4F88819981AA81BB81C059D0408093DC039093DD03A093F2
:20302000DE03B093DF03CC55DF4F288139814A815B81C45AD0402093E0033093E1034093F3
:20304000E2035093E303C855DF4F88819981AA81BB81C85AD0408093E4039093E503A09383
:20306000E603B093E7034092E8035092E9036092EA037092EB031092C7030E9406026093D7
:20308000C8037093C9038093CA039093CB03C455DF4F288139814A815B81CC5AD040C45624
:2030A000DF4F688179818A819B81CC59D0400E94E224AB01BC01CE0188589F4F0E942F061E
:2030C000C853DF4F288139814A815B81C85CD040CC56DF4F688179818A819B81C459D040E2
:2030E0000E94E224AB01BC01CE0182589F4F0E942F06CC53DF4F288139814A815B81C45CDA
:20310000D040C856DF4F688179818A819B81C859D0400E94E224AB01BC01CE018C579F4F67
:203120000E942F066CE971E0CE0186579F4F0E94B106BE016C577F4FCE0186579F4F0E9493
:20314000F1056BEA71E00E94DB05BE0162587F4F0E94F1056EEA71E00E94DB05BE016858C8
:203160007F4F0E94F10561EB71E00E94DB05BC01CE018E589F4F0E94A806CE018E589F4F77
:203180000E947B07CE018E589F4F0E940E07CE0186579F4F0E940E07CE018C579F4F0E941E
:2031A0000E07CE0182589F4F0E940E07CE0188589F4F0E940E0713CCC501B4010E94A32792
:2031C000811114C0CC53DF4F288139814A815B81C45CD040C501B4010E94E324C856DF4F92
:2031E000688379838A839B83C859D040A7019601C701B6010E94A327811114C0C853DF4FB3
:20320000288139814A815B81C85CD040C701B6010E94E324CC56DF4F688379838A839B83E6
:20322000C459D040A3019201C301B2010E94A327811114C0C455DF4F288139814A815B8190
:20324000CC5AD040C301B2010E94E324C456DF4F688379838A839B83CC59D040C057DF4F44
:20326000288139814A815B81C059D040CA01B9010E94A327811120CDCC55DF4F28813981F9
:203280004A815B81C45AD040C057DF4F688179818A819B81C059D04005CDC701B6010E94EE
:2032A000632720E030E040E251E40E9476236093FC037093FD038093FE039093FF0333CEB3
:2032C0008CE494E00E94F404111107C001E0D1CB0E94F404002309F4BDCB81E00E94A90418
:2032E00010E000E001111CC08CE494E00E945504811112C08CE494E00E9424051111F1CF3C
:203300008BE594E00E945504182F8BE594E011110BC00E942405E6CF8CE494E00E94F404B8
:20332000111106C001E0ECCF0E94F4040023C9F260E0809144040E94A7010FE010E0C80106
:203340000197F1F761E0809140040E94A701C8010197F1F780913E040E947E0121E040917E
:203360004604509147044817590709F020E020933D0480913D04811117C061E080914204D8
:203380000E94A70160E0809142040E94A701809148049091490482309105E0F2880F991FCE
:2033A000880F991F0597D4CF8DE394E00E94F40480E090E0A0EAB0E48093FC039093FD03DE
:2033C000A093FE03B093FF03C453DF4F288139814A815B81CC5CD04020930004309301046E
:2033E00040930204509303041092CC031092CD031092CE031092CF0387ED93EEA5E8B3E427
:203400008093D0039093D103A093D203B093D30380E090E0A7E0B3E48093D4039093D503DB
:20342000A093D603B093D7031092D8031092D9031092DA031092DB031092DC031092DD0366
:203440001092DE031092DF031092E0031092E1031092E2031092E3031092E4031092E50338
:203460001092E6031092E7031092E8031092E9031092EA031092EB031092C7030E940602E5
:203480006093C8037093C9038093CA039093CB0364EB71E0CE018E599F4F0E94B106CE0162
:2034A0008E599F4F0E947B07CE018E599F4F81CE10927D0365ED71E0EDCF81E080937D03AB
:2034C00066EE71E0E7CF3091EC03C856DF4F3883C859D0404091ED03CC56DF4F4883C459B0
:2034E000D0405091EE03C456DF4F5883CC59D0408091EF03C056DF4F8883C05AD0409091F5
:20350000F003CC55DF4F9883C45AD040A091F103C855DF4FA883C85AD040B091F203C45504
:20352000DF4FB883CC5AD040E091F303C055DF4FE883C05BD040F091F403CC54DF4FF8836B
:20354000C45BD0402091F503C854DF4F2883C85BD0403091F603C454DF4F3883CC5BD04079
:203560004091F703C054DF4F4883C05CD0405091F803CC53DF4F5883C45CD0408091F90306
:20358000C853DF4F8883C85CD0409091FA03C053DF4F9883C05DD040A091FB03CF52DF4F7E
:2035A000A883C15DD040A5019401C501B4010E94A3278111BFC120E030E0A901C501B40149
:2035C0000E94E3245B018C01A7019601C701B6010E94A3278111C3C120E030E0A901C70197
:2035E000B6010E94E3246B017C01A3019201C301B2010E94A3278111C7C120E030E0A90194
:20360000C301B2010E94E3243B014C01C057DF4F288139814A815B81C059D040CA01B90104
:203620000E94A3278111C5C120E030E0A901C057DF4F688179818A819B81C059D0400E9432
:20364000E3241B012C019501A801C856DF4F6881C859D040CC56DF4F7881C459D040C456E5
:20366000DF4F8881CC59D040C056DF4F9881C05AD0400E94E2246093A7037093A803809351
:20368000A9039093AA039601A701CC55DF4F6881C45AD040C855DF4F7881C85AD040C4557A
:2036A000DF4F8881CC5AD040C055DF4F9881C05BD0400E94E2246093AB037093AC03809308
:2036C000AD039093AE039301A401CC54DF4F6881C45BD040C854DF4F7881C85BD040C45439
:2036E000DF4F8881CC5BD040C054DF4F9881C05CD0400E94E2246093AF037093B0038093BF
:20370000B1039093B2039101A201CC53DF4F6881C45CD040C853DF4F7881C85CD040C053F9
:20372000DF4F8881C05DD040CF52DF4F9881C15DD0400E94E224AB01BC014093B303509312
:20374000B4036093B5037093B603CE018C579F4F0E942F064091AF035091B0036091B10318
:203760007091B203CE0182589F4F0E942F064091AB035091AC036091AD037091AE03CE01F4
:2037800088589F4F0E942F064091A7035091A8036091A9037091AA03CE018E589F4F0E94ED
:2037A0002F0667EF71E0CE018E599F4F0E94B106BE016E587F4FCE018E599F4F0E94F105A1
:2037C0006EE871E00E94DB05BE0168587F4F0E94F10562E971E00E94DB05BE0162587F4F76
:2037E0000E94F10566E971E00E94DB05BE016C577F4F0E94F1056AE971E00E94DB05BC0144
:20380000CE0186579F4F0E94A806CE0186579F4F0E947B07CE0186579F4F0E940E07CE01E0
:203820008E599F4F0E940E07CE018E589F4F0E940E07CE0188589F4F0E940E07CE018258A5
:203840009F4F0E940E07CE018C579F4F0E940E07A101B201CE018C579F4F0E942F06A301FC
:20386000B401CE0182589F4F0E942F06A601B701CE0188589F4F0E942F06A501B801CE0124
:203880008E589F4F0E942F066BE072E0CE018E599F4F0E94B106BE016E587F4FCE018E59DA
:2038A0009F4F0E94F1056EE871E00E94DB05BE0168587F4F0E94F10562E971E00E94DB0556
:2038C000BE0162587F4F0E94F10566E971E00E94DB05BE016C577F4F0E94F1056AE971E05B
:2038E0000E94DB05BC01CE0186579F4F0E94A806CE0186579F4F0E947B07CE0186579F4F47
:203900000E940E07CE018E599F4F0E940E07CE018E589F4F0E940E07CE0188589F4F0E94FC
:203920000E07CE0182589F4F0E940E07CE018C579F4F3FCCC856DF4FA880C859D040CC56B2
:20394000DF4FB880C459D040C456DF4F0881CC59D040C056DF4F1881C05AD04035CECC55A3
:20396000DF4FC880C45AD040C855DF4FD880C85AD040C455DF4FE880CC5AD040C055DF4FA6
:20398000F880C05BD04031CECC54DF4F6880C45BD040C854DF4F7880C85BD040C454DF4F65
:2039A0008880CC5BD040C054DF4F9880C05CD0402DCECC53DF4F2880C45CD040C853DF4FD9
:2039C0003880C85CD040C053DF4F4880C05DD040CF52DF4F5880C15DD04035CE2D3411F00B
:2039E0000C94D7128D33910509F416C144F58F30910509F436C164F40E9711F00C94EF14F1
:203A000061E080912C040E94A7016DE572E042CD8A31910509F410C14B9711F00C94EF1482
:203A200070E060E089EA94E00E94960366E470E086EA94E00E94960361E572E02BCD8737CD
:203A4000910509F41CC10CF0D8C08E33910509F4EBC08237910511F00C94EF1480E1E7EA3E
:203A6000F3E0DE01AE5ABF4F01900D928A95E1F72091EC033091ED034091EE035091EF0371
:203A8000C057DF4F288339834A835B83C059D0408091F0039091F103A091F203B091F30330
:203AA000C856DF4F88839983AA83BB83C859D040C090F403D090F503E090F603F090F70375
:203AC0004090F8035090F9036090FA037090FB0366962CAD3DAD4EAD5FAD6697CC56DF4F41
:203AE000288339834A835B83C459D0406A968CAD9DADAEADBFAD6A97C456DF4F88839983CD
:203B0000AA83BB83CC59D0406E968CAC9DACAEACBFAC6E97A2962CAD3DAD4EAD5FADA2977B
:203B2000C056DF4F288339834A835B83C05AD04080917D0367E872E0811102C065E972E0DF
:203B4000CE018E599F4F0E94B106CE018E599F4F0E947B07CE018E599F4F0E940E07C0562F
:203B6000DF4F288139814A815B81C05AD040C301B2010E94E224AB01BC01CE018C579F4FBB
:203B80000E942F06A5019401C701B6010E94E224AB01BC01CE0182589F4F0E942F06C456FB
:203BA000DF4F288139814A815B81CC59D040C856DF4F688179818A819B81C859D0400E946F
:203BC000E224AB01BC01CE0188589F4F0E942F06CC56DF4F288139814A815B81C459D0407B
:203BE000C057DF4F688179818A819B81C059D0400E94E224AB01BC0142CE8834B8E19B0735
:203C0000C1F18435984111F00C94EF1480E00E94A9046CE772E03ECC61E080912A040E943C
:203C2000A70161E272E036CC60E080912A040E94A70164E372E02ECC66E470E089EA94E068
:203C40000E94960370E060E086EA94E00E94960364EF71E080E090E00E942B0266E472E09B
:203C600019CC60E080912C040E94A70167E672E011CC81E00E94A90462E772E00BCC63EAA9
:203C800072E0CE018E589F4F0E94B1068BE594E00E945504682F70E0CE018E599F4F0E94CA
:203CA0006506A8964EAD5FADA897A4966EAD7FADA497CE018E589F4F0E949305CE018E59C6
:203CC0009F4F0E940E076EE871E0CE018E589F4F0E94BF058CE494E00E945504682F70E0C9
:203CE000CE018E599F4F0E946506A8964EAD5FADA897A4966EAD7FADA497CE018E589F4F30
:203D00000E949305CE018E599F4F0E940E0762E971E0CE018E589F4F0E94BF058DE394E085
:203D20000E945504682F70E0CE018E599F4F0E946506A8964EAD5FADA897A4966EAD7FADEB
:203D4000A497CE018E589F4F0E949305CE018E599F4F0E940E076AE971E0CE018E589F4FA9
:203D60000E94BF05BE016E587F4FCE018E599F4F0E94A806CE018E599F4F0E947B07CE01FF
:203D80008E599F4F0E940E07CE018E589F4F11CA60E00C94081589E993E00E940E0780916F
:203DA0009F039091A0030C949328EF920F931F93CF93DF93E80134E047FD34E1042E000C05
:203DC000550B57FF03C0519541955109E32E022F242FAE010E94581FCE01DF91CF911F91A8
:203DE0000F91EF900895662777270C94B7201F93FC0199278827BC01E89411911032E9F34E
:203E0000193010F01E30C8F31B3251F01D3249F4689406C00E94291F610F711D811D911D40
:203E2000119110531A30B0F33EF490958095709561957F4F8F4F9F4F1F910895BB274A30E6
:203E400031F4992322F4BDE2909581959F4F0C943F1F592F482F372F262F660F771F881F39
:203E6000991F660F771F881F991F620F731F841F951F660F771F881F991F0895BB27FB01E1
:203E80005527AA27880F991FAA1FA41710F0A41B83955051B9F7A05DAA3308F0A95DA193CE
:203EA000009779F7B111B1931192CB010C940023A9E0B0E0EEE5FFE10C946F246A01F22E39
:203EC000B02E102FFBE3AF2EA01608F41BE31F5F012F27E0AE014F5F5F4F0E940722BC0112
:203EE0008981982F9970913009F43FC09BE2E1FC04C09E2D9170E0FC3AC05E2D5071E82F08
:203F0000E87083FF46C084E0911101C083E0EF2DE81B8F1508F0E0E0D6018E2F20E255230E
:203F200051F1992329F0D6019C93C60101966C0196012D5F3F4FE2FE24C08EE4D6018C93BC
:203F400091E411969C93119712968C93D9018E2F90E281111BC0E20FF32FF11D10828EEF01
:203F60009FEF2996ECE00C948B249DE2C6CF90E2C4CF2D9381508111FCCFCE0ED11CE0E049
:203F8000D0CF8EE6D6018C9391E6DBCF9D938150E0CF482F447082FF3DC084E0911101C0D7
:203FA00083E08F1510F4EF2DE81BD6018E2F20E2552309F1992329F0D6019C93C601019696
:203FC0006C0196012D5F3F4FE2FE1BC089E4D6018C938EE411968C93119786E412968C9394
:203FE000D9018E2F90E2882309F4B5CF9D938150FACF2D9381508111FCCFCE0ED11CE0E04B
:20400000D9CF89E6D6018C938EE611968C93119786E6E4CF9B0177FF02C030E020E0A1E02D
:20402000B0E0911102C0B0E0A0E0F9013196AE0FBF1F8B2C912CBB2009F461C05401EFEF80
:20404000AE1ABE0AAA0DBB1DFA161B0619F014F04F2D4A1B511188C0E3FC59C07601A42F36
:20406000B0E2A1114FC0C40ED11C992309F45BC040E0D6011196F60190836D01552309F4CF
:2040800048C0012F060F9A81582F507184FF03C0913309F4015010160CF047C0093008F0BE
:2040A00008E0EEE2FE2E5B01A01AB10885019194819491082F3F320729F4D601FC92F601D4
:2040C00031966F016217730794F1021713077CF5DB01A21BB30BAA24A394B12CAC0EBD1EBF
:2040E000AA0DBB1D11968C9121503109D601119628153905F4F0F60180836D01DBCFB12CF6
:20410000A12CA0CFF701B1937F01A150AACF9111B0CFD601942F50E302C05D93915091111A
:20412000FCCFC40ED11C40E0ACCF01E0BACF80E3DBCF6217730731F4963388F4953311F4B9
:20414000552369F0F6018083FD01842F90E2811108C0A40FB11D1C9290E080E002CF81E3E3
:20416000F1CF91938150F3CF911183CF8ACFB0E0A0E0EDEBF0E20C946F245C017B0161153F
:20418000710519F0DB018D939C9385010F5F1F4FF501D0818D2F90E00E94DF226C01892BDC
:2041A000B9F5DD32B9F50F5F1F4FD5011196DC91C1E05801F1E0AF1AB10843E050E06AECD8
:2041C00070E0C5010E94E822892B69F5680182E0C80ED11C45E050E065EC70E0C6010E941E
:2041E000E822892B21F4680197E0C90ED11CE114F10419F0D701CD92DC9260E070E080E8B8
:204200009FEFC111FFC060E070E080E89FE7FAC05801BBCFDB3229F485010E5F1F4FF501E3
:20422000D181C0E0C6CF43E050E062EC70E0C5010E94E822892BE9F0F80110E000E020E03E
:2042400030E0A9015F01B0ED8B2E8D0E89E08815C8F19C2E689491F88C2F8870C2FF16C0FB
:20426000811102C00F5F1F4F3196D501DC91C92DE9CFE114F10429F00E5F1F4FF7011183EC
:20428000008360E070E080EC9FE7BCC0882311F001501109A5E0B0E00E9456249B01AC010C
:2042A000220F331F441F551F280D311D411D511D283999E93907490799E15907A8F2C66048
:2042C0009C2ED2CFAEEF8A1206C0C3FD3CC09C2E689493F8C9CFDF7DD534A9F580818D320C
:2042E00039F4C061DF011296818162E070E006C0DF018B32C1F3119661E070E080535D01D4
:20430000A61AB70A8A30F8F4E0E8CE16ECE0DE065CF4B601660F771F660F771FC60ED71E34
:20432000CC0CDD1CC80ED11C5D01FFEFAF1ABF0A8C9180538A30A8F1C4FF03C0D194C19488
:20434000D1080C0D1D1DC1FF09C0E114F10431F081E0A81AB108D701AD92BC92CA01B901D7
:204360000E941523C370C33009F490584B015C0120E030E0A9010E941023882309F440C078
:20438000C9EFD0E017FF05C0119501951109C1EED0E06E01B8E1CB1AD10880E2E82EF12CCA
:2043A0000FC0D501B1CFFE0125913591459154910E191F09C501B4010E9476234B015C01F4
:2043C000D501C4010E151F0574F72497F594E794CC16DD06A9F78A2F880F8B2F881F8F3FED
:2043E00049F020E030E0A901C501B4010E941023811106C082E290E09093AD048093AC04B7
:20440000C501B401CDB7DEB7ECE00C948B24283008F027E03327DA01990F311D87FD9160F6
:2044200000966105710539F432602E5F3D9330E32A95E1F708959F3F30F080387105610515
:2044400009F03C5F3C5F3D93913008F08068911DDF93CF931F930F93FF92EF92192F987F75
:204460009695E92F96959695E90FFF27E95AFE4F99273327EE24FF24A701E70105900894E5
:20448000079428F4360FE71EF81E491F511D660F771F881F991F0694A1F70590079428F447
:2044A000E70EF81E491F561FC11D770F881F991F661F0694A1F70590079428F4F80E491FE0
:2044C000561FC71FD11D880F991F661F771F0694A1F70590079420F4490F561FC71FD81F09
:2044E000990F661F771F881F0694A9F784911095177041F0D695C79557954795F794E79411
:204500001A95C1F7EDEFF0E068941590159135916591959105907FE27395E118F10A430B1F
:20452000560BC90BD009C0F7E10CF11E431F561FC91FD01D7EF4703311F48A95E6CFE894A4
:20454000015030F0080F0AF40027021708F4202F2395022F7A3328F079E37D932A95E9F791
:2045600010C07D932A9589F6069497956795379517951794E118F10A430B560BC90BD009E8
:2045800098F023957E9173957A3308F070E37C932013B8F77E9170617D9330F0839571E35F
:2045A0007D9370E32A95E1F71124EF90FF900F911F91CF91DF91992787FD909508959111F6
:2045C0000C94E323803219F089508550C8F70895FB01DC014150504088F08D9181341CF01F
:2045E0008B350CF4805E659161341CF06B350CF4605E861B611171F3990B0895881BFCCF02
:20460000DC01FC01672F71917723E1F7329704C07C916D9370836291AE17BF07C8F3089553
:204620000E94522308F481E00895E89409C097FB3EF490958095709561957F4F8F4F9F4F91
:204640009923A9F0F92F96E9BB279395F695879577956795B795F111F8CFFAF4BB0F11F4D3
:2046600060FF1BC06F5F7F4F8F4F9F4F16C0882311F096E911C0772321F09EE8872F762F3A
:2046800005C0662371F096E8862F70E060E02AF09A95660F771F881FDAF7880F96958795FE
:2046A00097F90895990F0008550FAA0BE0E8FEEF16161706E807F907C0F012161306E4073B
:2046C000F50798F0621B730B840B950B39F40A2661F0232B242B252B21F408950A2609F4B2
:2046E000A140A6958FEF811D811D08950E9489230C94FD230E94EF2338F00E94F62320F092
:20470000952311F00C94E6230C94EC2311240C9431240E940E2470F3959FC1F3950F50E06B
:20472000551F629FF001729FBB27F00DB11D639FAA27F00DB11DAA1F649F6627B00DA11DE3
:20474000661F829F2227B00DA11D621F739FB00DA11D621F839FA00D611D221F749F332765
:20476000A00D611D231F849F600D211D822F762F6A2F11249F5750409AF0F1F088234AF004
:20478000EE0FFF1FBB1F661F771F881F91505040A9F79E3F510580F00C94E6230C94312410
:2047A0005F3FE4F3983ED4F3869577956795B795F795E7959F5FC1F7FE2B880F911D969521
:2047C000879597F9089599278827089597F99F6780E870E060E008959FEF80EC089500249E
:2047E0000A941616170618060906089500240A9412161306140605060895092E0394000C69
:2048000011F4882352F0BB0F40F4BF2B11F460FF04C06F5F7F4F8F4F9F4F089557FD905855
:20482000440F551F59F05F3F71F04795880F97FB991F61F09F3F79F087950895121613061A
:204840001406551FF2CF4695F1DF08C0161617061806991FF1CF8695710561050894089587
:20486000E894BB2766277727CB0197F90895052E97FB1EF400940E944E2457FD07D00E946A
:20488000A02407FC03D04EF40C944E2450954095309521953F4F4F4F5F4F08959095809544
:2048A000709561957F4F8F4F9F4F08950E94C224A59F900DB49F900DA49F800D911D1124BA
:2048C0000895B7FF0C9456240E945624821B930B08952F923F924F925F926F927F928F92E0
:2048E0009F92AF92BF92CF92DF92EF92FF920F931F93CF93DF93CDB7DEB7CA1BDB0B0FB640
:20490000F894DEBF0FBECDBF09942A88398848885F846E847D848C849B84AA84B984C88479
:20492000DF80EE80FD800C811B81AA81B981CE0FD11D0FB6F894DEBF0FBECDBFED01089502
:20494000A1E21A2EAA1BBB1BFD010DC0AA1FBB1FEE1FFF1FA217B307E407F50720F0A21B31
:20496000B30BE40BF50B661F771F881F991F1A9469F760957095809590959B01AC01BD01C7
:20498000CF010895A29FB001B39FC001A39F700D811D1124911DB29F700D811D1124911D16
:2049A00008959F939F770E9417260F90002042F49058A2EA2AED3FE049E450E40E94FA2473
:2049C0000C94FD235058BB27AA270E94FA240C94FD230E94EF2338F00E94F62320F039F468
:2049E0009F3F19F426F40C94EC230EF4E095E7FB0C94E623E92F0E940E2458F3BA17620790
:204A000073078407950720F079F4A6F50C9430240EF4E0950B2EBA2FA02D0B01B90190012C
:204A20000C01CA01A0011124FF27591B99F0593F50F4503E68F11A16F040A22F232F342FFC
:204A40004427585FF3CF469537952795A795F0405395C9F77EF41F16BA0B620B730B840B15
:204A6000BAF09150A1F0FF0FBB1F661F771F881FC2F70EC0BA0F621F731F841F48F4879512
:204A800077956795B795F7959E3F08F0B0CF9395880F08F09927EE0F9795879508959F9357
:204AA0009F77EEE389379E0728F4E8E6F0E00E945E260CC00E9417269058A2EA2AED3FE075
:204AC00049EC5FE30E94FA240E94FD230F9007FC905808950E947426E3950C949D260E94FD
:204AE00083250C94FD230E94F62358F00E94EF2340F029F45F3F29F00C94E62351110C94E8
:204B000031240C94EC230E940E2468F39923B1F3552391F3951B550BBB27AA276217730750
:204B2000840738F09F5F5F4F220F331F441FAA1FA9F335D00E2E3AF0E0E832D09150504025
:204B4000E695001CCAF72BD0FE2F29D0660F771F881FBB1F261737074807AB07B0E809F043
:204B6000BB0B802DBF01FF2793585F4F3AF09E3F510578F00C94E6230C9431245F3FE4F36B
:204B8000983ED4F3869577956795B795F7959F5FC9F7880F911D9695879597F90895E1E045
:204BA000660F771F881FBB1F621773078407BA0720F0621B730B840BBA0BEE1F88F7E095CA
:204BC00008950E94E8256894B1110C94312408950E94162488F09F5798F0B92F9927B751B7
:204BE000B0F0E1F0660F771F881F991F1AF0BA95C9F714C0B13091F00E943024B1E0089567
:204C00000C943024672F782F8827B85F39F0B93FCCF3869577956795B395D9F73EF490952B
:204C20008095709561957F4F8F4F9F4F0895DF93CF931F930F938B01EC01ECE7F0E00E9447
:204C400037260E94FD239801AE018B01EC0160E070E080E89FE30E94E2240E94632798018D
:204C6000AE010F911F91CF91DF910C948923DF93CF931F930F93FF92EF92DF927B018C0165
:204C8000689406C0DA2EEF010E948923FE01E894A5912591359145915591A6F3EF010E94F8
:204CA000FA24FE019701A801DA9469F7DF90EF90FF900F911F91CF91DF9108959F938F933A
:204CC0007F936F93FF93EF939B01AC010E947623EF91FF910E9437262F913F914F915F91B9
:204CE0000C9476230C94EC230E941624D8F3E894E0E0BB279F57F0F02AED3FE049EC06C000
:204D0000EE0FBB0F661F771F881F28F0B23A62077307840728F0B25A620B730B840BE39582
:204D20009A9572F7803830F49A95BB0F661F771F881FD2F790480C94AA27EF93E0FF07C00A
:204D4000A2EA2AED3FE049EC5FEB0E94FA240E94FD230F90039401FC9058E4EAF0E00C9437
:204D60005E260E94522308F48FEF08950E94EF2329F00E94F62311F00C94EC230C94E623A0
:204D8000B901CA010C94A8279F775F770E940E2468F39923A9F35523A9F3FF27951758F47A
:204DA000E52FE91BED3060F75E3B10F0F1E41CC09034E0F40AC0E92FE51BED3018F79E3B9E
:204DC00010F0F1E411C0503488F4F9EA88232AF09A95660F771F881FDAF744232AF05A9563
:204DE000220F331F441FDAF79F1B5F1BFF931F930F93FF92EF9279018A01BB27AB2F9B0173
:204E0000AC010E948C239701A801BF937B018C01AA27BA2FB901CA010E948C23AF91970190
:204E2000A801EF90FF900F911F910E94FA240E94FD230E9463274F9140FF0895552747FD41
:204E400050950C9427270C94E6230C94A8270E941624D8F39923C9F3940F511DA3F39150C0
:204E6000504094F059F0882332F0660F771F881F91505040C1F79E3F51052CF7880F911D92
:204E80009695879597F908955F3FACF0983E9CF0BB27869577956795B79508F4B16093957C
:204EA000C1F7BB0F58F711F460FFE8CF6F5F7F4F8F4F9F4FE3CF0C94312419F416F40C9440
:204EC000EC230C94A8270E941624B8F39923C9F3B6F39F57550B87FF0E94B6270024A0E6A7
:204EE00040EA900180585695979528F4805C660F771F881F20F026173707480730F4621BE3
:204F0000730B840B202931294A2BA69517940794202531254A2758F7660F771F881F20F0CE
:204F200026173707480730F4620B730B840B200D311D411DA09581F7B901842F9158880F96
:204F40009695879508950E945223880B990B08959F3F31F0915020F4879577956795B7951E
:204F6000880F911D9695879597F9089591505040660F771F881FD2F70895991B79E004C01E
:204F8000991F961708F0961B881F7A95C9F78095089597FB072E16F4009407D077FD09D052
:204FA0000E94DD2707FC05D03EF4909581959F4F0895709561957F4F0895AA1BBB1B51E148
:204FC00007C0AA1FBB1FA617B70710F0A61BB70B881F991F5A95A9F780959095BC01CD01B6
:204FE0000895EE0FFF1F0590F491E02D09940F931F93CF93DF938230910510F482E090E0EF
:20500000E091B004F091B10430E020E0B0E0A0E0309799F42115310509F44AC0281B390BC7
:2050200024303105D8F58A819B816115710589F1FB0193838283FE0111C04081518102818F
:20504000138148175907E0F04817590799F4109761F012960C93129713961C933296CF0109
:20506000DF91CF911F910F9108950093B0041093B104F4CF2115310551F04217530738F089
:20508000A901DB019A01BD01DF01F801C1CFEF01F9CF9093B1048093B004CDCFFE01E20FE5
:2050A000F31F819391932250310939832883D7CF2091AE043091AF04232B41F420910201DF
:2050C000309103013093AF042093AE0420910001309101012115310541F42DB73EB7409170
:2050E000040150910501241B350BE091AE04F091AF04E217F307A0F42E1B3F0B2817390755
:2051000078F0AC014E5F5F4F2417350748F04E0F5F1F5093AF044093AE04819391939FCFD4
:20512000F0E0E0E09CCFCF93DF930097E9F0FC01329713821282A091B004B091B104ED0178
:2051400030E020E01097A1F420813181820F931F2091AE043091AF042817390709F061C0FD
:20516000F093AF04E093AE04DF91CF910895EA01CE17DF07E8F54A815B819E0141155105E2
:20518000B1F7E901FB83EA8349915991C40FD51FEC17FD0761F4808191810296840F951FB9
:2051A000E90199838883828193819B838A83F0E0E0E012968D919C9113970097B9F52D916C
:2051C0003C911197CD010296820F931F2091AE043091AF042817390739F6309751F510927D
:2051E000B1041092B004B093AF04A093AE04BCCFD383C28340815181840F951FC817D9070A
:2052000061F44E5F5F4F88819981480F591F518340838A819B81938382832115310509F0AE
:20522000B0CFF093B104E093B0049ECFFD01DC01C0CF13821282D7CFB0E0A0E0E2E2F9E23B
:205240000C946B248C01009751F4CB010E94F7278C01C801CDB7DEB7E0E10C948724FC01B2
:20526000E60FF71F9C0122503109E217F30708F49DC0D901CD91DC911197C617D70798F0FE
:20528000C530D10530F3CE0104978617970708F3C61BD70B2297C193D1936D937C93CF016D
:2052A0000E949328D6CF5B01AC1ABD0A4C018C0E9D1EA091B004B091B104512C412CF12C7F
:2052C000E12C109731F58091AE049091AF048815990509F05CC04616570608F058C0809133
:2052E000000190910101009741F48DB79EB74091040150910501841B950BE817F90708F032
:2053000055C0F093AF04E093AE04F90171836083A0CF8D919C91119712966C9012971396F4
:205320007C901397A815B90559F56C0142E0C40ED11CCA14DB0420F1AC014A195B09DA0183
:205340001296159780F06282738251834083D9016D937C93E114F10471F0D7011396FC93D5
:20536000EE93129776CF22968C0F9D1FF90191838083F301EFCFF093B104E093B00469CF55
:205380004816590608F42C017D01D3019ACFCB010E94F7277C01009749F0AE01B8010E9489
:2053A000EC29C8010E949328870153CF10E000E050CF85FD0C94E323806291110C94E323C7
:2053C00081568A51D8F708959111089581568A5108F4805285580895FB01DC0102C001904A
:2053E0000D9241505040D8F708956817790768F4FB01DC01E40FF51FA40FB51F02C002906B
:205400000E9241505040D8F708950C94EC29FB01DC0101900D920020E1F70895FB0151912E
:205420005523A9F0BF01DC014D9145174111E1F759F4CD010190002049F04D9140154111D0
:20544000C9F3FB014111EFCF81E090E00197089511E0CAE2D1E004C0FE010E94F1272196FC
:20546000CB32D107C9F7F894FFCF0000B20480000000000029037002B6027603E702C50288
:20548000D9020D0A004552524F523A2000434F4D4D414E44204E4F54205245434F474E49FF
:2054A0005A454400494E464F3A2000436F6E6E65637465642C20706C656173652063616CDA
:2054C00069627261746520746865206D656368616E6963616C20636F6F7264696E61746587
:2054E00073EFBC81004C494D495420524541434845443A205B583A0020593A00205A3A00D4
:2055000020453A005D004C494E454152204D4F56453A205800205900205A00202E004D65D8
:205520006368616E6963616C2063616C6962726174696F6E20636F6D706C65746564004172
:2055400042534F4C555445204D4F4445204F4E0052454C4154495645204D4F4445204F4ECD
:2055600000504F534954494F4E204F46465345543A205B580043555252454E5420504F538D
:205580004954494F4E3A205B583A00456E6420457865637574696F6E2D4849474800456E56
:2055A0006420457865637574696F6E2D4C4F570047726970706572204F4E004772697070FC
:2055C0006572204F4646005375636B6572204F4E005375636B6572204F464600456E6162F1
:2055E0006C65204E4F00456E61626C65204F46460052454C4154495645204D4F44450041F9
:2056000042534F4C555445204D4F444500454E4453544F503A205B583A0049474800456E38
:205620006420457865637574696F6E2D4C4F570047726970706572204F4E0047726970707B
:205640006572204F4646005375636B6572204F4E005375636B6572204F464600456E616270
:205660006C65204E4F00456E61626C65204F46460052454C4154495645204D4F4445004178
:20568000FFFFFFFFFFFFFFFFFFFFFFFFFFFFFFFFFFFFFFFFFFFFFFFFFFFFFFFFFFFFFFFF2A
:2056A000FFFFFFFFFFFFFFFFFFFFFFFFFFFFFFFFFFFFFFFFFFFFFFFFFFFFFFFFFFFFFFFF0A
:2056C000FFFFFFFFFFFFFFFFFFFFFFFFFFFFFFFFFFFFFFFFFFFFFFFFFFFFFFFFFFFFFFFFEA
:2056E000FFFFFFFFFFFFFFFFFFFFFFFFFFFFFFFFFFFFFFFFFFFFFFFFFFFFFFFFFFFFFFFFCA
:207E0000112484B714BE81FFF0D085E08093810082E08093C00088E18093C10086E08093FC
:207E2000C20080E18093C4008EE0C9D0259A86E020E33CEF91E0309385002093840096BBAD
:207E4000B09BFECF1D9AA8958150A9F7CC24DD2488248394B5E0AB2EA1E19A2EF3E0BF2E79
:207E6000A2D0813461F49FD0082FAFD0023811F0013811F484E001C083E08DD089C0823404
:207E800011F484E103C0853419F485E0A6D080C0853579F488D0E82EFF2485D0082F10E0A0
:207EA000102F00270E291F29000F111F8ED068016FC0863521F484E090D080E0DECF84364D
:207EC00009F040C070D06FD0082F6DD080E0C81680E7D80618F4F601B7BEE895C0E0D1E0ED
:207EE00062D089930C17E1F7F0E0CF16F0E7DF0618F0F601B7BEE89568D007B600FCFDCF1A
:207F0000A601A0E0B1E02C9130E011968C91119790E0982F8827822B932B1296FA010C016F
:207F200087BEE89511244E5F5F4FF1E0A038BF0751F7F601A7BEE89507B600FCFDCF97BE85
:207F4000E89526C08437B1F42ED02DD0F82E2BD03CD0F601EF2C8F010F5F1F4F84911BD0B8
:207F6000EA94F801C1F70894C11CD11CFA94CF0CD11C0EC0853739F428D08EE10CD085E9AE
:207F80000AD08FE07ACF813511F488E018D01DD080E101D065CF982F8091C00085FFFCCF0A
:207FA0009093C60008958091C00087FFFCCF8091C00084FD01C0A8958091C6000895E0E68F
:207FC000F0E098E1908380830895EDDF803219F088E0F5DFFFCF84E1DECF1F93182FE3DF47
:207FE0001150E9F7F2DF1F91089580E0E8DFEE27FF270994FFFFFFFFFFFFFFFFFFFF040425
:00000001FF
