:200000000C942B010C9453010C9453010C9453010C9453010C9453010C9453010C94530168
:200020000C9453010C9453010C9453010C9464080C9453010C9453010C9453010C94530108
:200040000C94C2070C9453010C9432080C940C080C9453010C9453010C9453010C945301E5
:200060000C9453010C945301036EDB363D9A9999993DABAAAA2A3E000000803F072C7AA5BF
:20008000BA6CC590DA3B9365FC8BBC53F810FD3C5692834DBD879D3AB63DCBC9BF5BBE735C
:2000A000DA0FC93F05A84CCDB2D44EB93836A9020C50B9918688083CA6AAAA2ABE00000009
:2000C000803F4E414E494E495459494E46CDCCCC3D0AD7233C17B7D13877CC2B329595E6B1
:2000E000241FB14F0A000020410000C84200401C4620BCBE4CCA1B0E5AAEC59D7400407A35
:2001000010F35A00A0724E18090010A5D4E80000E87648170000E40B54020000CA9A3B00EF
:200120000000E1F505000080969800000040420F000000A08601000000102700000000E85F
:2001400003000000006400000000000A00000000000100000000002C76D888DC674F08236E
:20016000DFC1DFAE59E1B1B796E5E3E453C63AE651997696E8E6C28426EB898C9B62ED40DB
:200180007C6FFCEFBC9C9F40F2BAA56FA5F490055A2AF75C936B6CF9676DC11BFCE0E40DAD
:2001A00047FEF520E6B500D0ED902E0300943577050080841E080000204E0A000000C80C11
:2001C000333333330F986E12831141EF8D2114893BE65516CFFEE6DB18D1844B381BF77C85
:2001E0001D901DA4BBE424203284725E228100C9F124ECA1E53D2700000000240027002A5C
:200200000000000000250028002B00000000002300260029000404040404040404020202CE
:20022000020202030303030303010204081020408001020408102001020408102000000029
:200240000800020100000304070000000000000000002009CB1E11241FBECFEFD8E0DEBF4E
:20026000CDBF12E0A0E0B1E0EAE6F4E502C005900D92A03BB107D9F724E0A0EBB2E001C00B
:200280001D92A23BB207E1F711E0CAE2D1E004C02197FE010E94F127C932D107C9F70E9489
:2002A0001F0B0C94282A0C940000833081F028F4813099F08230A9F008958730A9F0883018
:2002C000C9F08430B1F4809180008F7D03C0809180008F7780938000089584B58F7784BD65
:2002E000089584B58F7DFBCF8091B0008F778093B00008958091B0008F7DF9CFCF93DF93C2
:20030000282F30E0F901E35CFD4F8491F901E75DFD4FD491F901EB5EFD4FC491CC23A1F089
:2003200081110E945501EC2FF0E0EE0FFF1FE55FFD4FA591B491EC91ED2381E090E009F4C7
:2003400080E0DF91CF91089580E090E0FACF1F93CF93DF93282F30E0F901E35CFD4F8491B0
:20036000F901E75DFD4FD491F901EB5EFD4FC491CC23A9F0162F81110E945501EC2FF0E068
:20038000EE0FFF1FEF5FFD4FA591B4918FB7F894EC91111108C0D095DE23DC938FBFDF9161
:2003A000CF911F910895DE2BF8CFCF93DF9390E0FC01E75DFD4F24918B5E9D4FFC01849153
:2003C0008823D1F090E0880F991FFC01E950FE4FA591B491FC01EF5FFD4FC591D491623010
:2003E00071F49FB7F8943C91822F809583238C93E8812E2B28839FBFDF91CF9108958FB7E0
:00000001FF
